:020000040800F2
:10400000FFFF0120FDAB00088F83000891830008AB
:10401000E98400082D850008718500080000000073
:104020000000000000000000000000005D6C0008BF
:10403000B585000800000000F16C00088B830008C3
:1040400041AC000841AC000841AC000841AC00089C
:1040500041AC000841AC00081F8200082F82000814
:104060003F8200084F8200085D82000809D80008DE
:1040700041AC00082DD8000841AC000841AC000854
:10408000B785000841AC000841AC000841AC00080D
:1040900041AC000841AC000841AC00087582000842
:1040A00041AC000841AC000841AC000841AC00083C
:1040B00041AC000841AC000841AC0008FDD7000845
:1040C000F1D7000841AC000841AC000841AC000841
:1040D00041AC000841AC000841AC00081DE20008FA
:1040E000EF82000841AC000841AC000841AC000878
:1040F00041AC0008F9E3000841AC000841AC0008FD
:1041000041AC000841AC000841AC000841AC0008DB
:1041100041AC000841AC000841AC0008D5FA0008E9
:10412000DD1C010841AC000841AC000841AC0008AE
:1041300041AC000841AC000841AC000841AC0008AB
:1041400041AC000841AC000841AC000871B900085E
:10415000711C010841AC0008D9E00008D5E0000856
:1041600021D8000815D8000841AC000841AC00086F
:1041700041AC000841AC000841AC000841AC00086B
:0841800041AC000841AC00084D
:1041880081F0004102E000BF83F0004330B54FEA00
:1041980041044FEA430594EA050F08BF90EA020F6D
:1041A8001FBF54EA000C55EA020C7FEA645C7FEA00
:1041B800655C00F0E2804FEA5454D4EB5555B8BF23
:1041C8006D420CDD2C4480EA020281EA030382EA94
:1041D800000083EA010180EA020281EA0303362D26
:1041E80088BF30BD11F0004F4FEA01314FF4801CF9
:1041F8004CEA113102D0404261EB410113F0004F0B
:104208004FEA03334CEA133302D0524263EB4303C1
:1042180094EA050F00F0A780A4F10104D5F1200E5F
:104228000DDB02FA0EFC22FA05F2801841F10001BA
:1042380003FA0EF2801843FA05F359410EE0A5F18E
:1042480020050EF1200E012A03FA0EFC28BF4CF0BF
:10425800020C43FA05F3C01851EBE37101F0004575
:1042680007D54FF0000EDCF1000C7EEB00006EEB82
:104278000101B1F5801F1BD3B1F5001F0CD349080C
:104288005FEA30004FEA3C0C04F101044FEA445263
:1042980012F5800F80F09A80BCF1004F08BF5FEAEA
:1042A800500C50F1000041EB045141EA050130BDCA
:1042B8005FEA4C0C404141EB010111F4801FA4F16D
:1042C8000104E9D191F0000F04BF01460020B1FAC2
:1042D80081F308BF2033A3F10B03B3F120020CDAFA
:1042E8000C3208DD02F1140CC2F10C0201FA0CF0D8
:1042F80021FA02F10CE002F11402D8BFC2F1200C3D
:1043080001FA02F120FA0CFCDCBF41EA0C019040F2
:10431800E41AA2BF01EB0451294330BD6FEA04043B
:104328001F3C1CDA0C340EDC04F11404C4F1200226
:1043380020FA04F001FA02F340EA030021FA04F338
:1043480045EA030130BDC4F10C04C4F1200220FA8F
:1043580002F001FA04F340EA0300294630BD21FACD
:1043680004F0294630BD94F0000F83F4801306BF93
:1043780081F480110134013D4EE77FEA645C18BF87
:104388007FEA655C29D094EA050F08BF90EA020F1E
:1043980005D054EA000C04BF1946104630BD91EA16
:1043A800030F1EBF0021002030BD5FEA545C05D119
:1043B8004000494128BF41F0004130BD14F5800458
:1043C8003CBF01F5801130BD01F0004545F0FE41CC
:1043D80041F470014FF0000030BD7FEA645C1ABF01
:1043E800194610467FEA655C1CBF0B46024650EA38
:1043F800013406BF52EA033591EA030F41F4002164
:1044080030BD00BF90F0000F04BF0021704730B5E9
:104418004FF4806404F132044FF000054FF00001BE
:1044280050E700BF90F0000F04BF0021704730B57F
:104438004FF4806404F1320410F0004548BF404254
:104448004FF000013EE700BF42004FEAE2014FEAA9
:1044580031014FEA02701FBF12F07F4393F07F4F84
:1044680081F06051704792F0000F14BF93F07F4FB6
:10447800704730B54FF4607401F0004521F00041F9
:1044880020E700BF50EA010208BF704730B54FF07F
:1044980000050AE050EA010208BF704730B511F084
:1044A800004502D5404261EB41014FF4806404F1BC
:1044B80032045FEA915C3FF4DCAE4FF003025FEA3E
:1044C800DC0C18BF03325FEADC0C18BF033202EBC6
:1044D800DC02C2F1200300FA03FC20FA02F001FA20
:1044E80003FE40EA0E0021FA02F11444C1E600BFBF
:1044F80070B54FF0FF0C4CF4E06C1CEA11541DBF72
:104508001CEA135594EA0C0F95EA0C0F00F0DEF83C
:104518002C4481EA030621EA4C5123EA4C5350EA21
:10452800013518BF52EA033541F4801143F4801372
:1045380038D0A0FB02CE4FF00005E1FB02E506F003
:104548000042E0FB03E54FF00006E1FB03569CF058
:10455800000F18BF4EF0010EA4F1FF04B6F5007F5E
:1045680064F5407404D25FEA4E0E6D4146EB0606D0
:1045780042EAC62141EA55514FEAC52040EA5E5059
:104588004FEACE2EB4F1FD0C88BFBCF5E06F1ED803
:10459800BEF1004F08BF5FEA500E50F1000041EB3A
:1045A800045170BD06F0004646EA010140EA0200E7
:1045B80081EA0301B4EB5C04C2BFD4EB0C0541EA09
:1045C800045170BD41F480114FF0000E013C00F31E
:1045D800AB8014F1360FDEBF002001F0004170BD42
:1045E800C4F10004203C35DA0C341BDC04F114045B
:1045F800C4F1200500FA05F320FA04F001FA05F2E7
:1046080040EA020001F0004221F0004110EBD370B3
:1046180021FA04F642EB06015EEA430E08BF20EADF
:10462800D37070BDC4F10C04C4F1200500FA04F382
:1046380020FA05F001FA04F240EA020001F0004114
:1046480010EBD37041F100015EEA430E08BF20EA87
:10465800D37070BDC4F1200500FA05F24EEA020ECF
:1046680020FA04F301FA05F243EA020321FA04F0FE
:1046780001F0004121FA04F220EA020000EBD370B5
:104688005EEA430E08BF20EAD37070BD94F0000FB5
:104698000FD101F00046400041EB010111F4801FE9
:1046A80008BF013CF7D041EA060195F0000F18BF9A
:1046B800704703F00046520043EB030313F4801FD6
:1046C80008BF013DF7D043EA0603704794EA0C0F90
:1046D8000CEA135518BF95EA0C0F0CD050EA4106A6
:1046E80018BF52EA4306D1D181EA030101F0004123
:1046F8004FF0000070BD50EA410606BF104619464B
:1047080052EA430619D094EA0C0F02D150EA013656
:1047180013D195EA0C0F05D152EA03361CBF104697
:1047280019460AD181EA030101F0004141F0FE4136
:1047380041F470014FF0000070BD41F0FE4141F4BA
:10474800780170BD70B54FF0FF0C4CF4E06C1CEABA
:1047580011541DBF1CEA135594EA0C0F95EA0C0F6F
:1047680000F0A7F8A4EB050481EA030E52EA03352A
:104778004FEA013100F088804FEA03334FF080554B
:1047880045EA131343EA12634FEA022245EA111578
:1047980045EA10654FEA00260EF000419D4208BF29
:1047A800964244F1FD0404F5407402D25B084FEAD6
:1047B8003202B61A65EB03055B084FEA32024FF482
:1047C80080104FF4002CB6EB020E75EB030E22BFDF
:1047D800B61A754640EA0C005B084FEA3202B6EB9F
:1047E800020E75EB030E22BFB61A754640EA5C004E
:1047F8005B084FEA3202B6EB020E75EB030E22BFDE
:10480800B61A754640EA9C005B084FEA3202B6EBDE
:10481800020E75EB030E22BFB61A754640EADC009D
:1048280055EA060E18D04FEA051545EA16754FEAFF
:1048380006164FEAC30343EA52734FEAC2025FEA1D
:104848001C1CC0D111F4801F0BD141EA00014FF0AC
:1048580000004FF0004CB6E711F4801F04BF01437D
:104868000020B4F1FD0C88BFBCF5E06F3FF6AFAE99
:10487800B5EB030C04BFB6EB020C5FEA500C50F129
:10488800000041EB045170BD0EF0004E4EEA1131AC
:1048980014EB5C04C2BFD4EB0C0541EA045170BDB3
:1048A80041F480114FF0000E013C90E645EA060EF7
:1048B8008DE60CEA135594EA0C0F08BF95EA0C0F25
:1048C8003FF43BAF94EA0C0F0AD150EA01347FF46D
:1048D80034AF95EA0C0F7FF425AF104619462CE744
:1048E80095EA0C0F06D152EA03353FF4FDAE1046A7
:1048F800194622E750EA410618BF52EA43067FF4F8
:10490800C5AE50EA41047FF40DAF52EA43057FF487
:10491800EBAE12E74FF0FF3C06E000BF4FF0010C92
:1049280002E000BF4FF0010C4DF804CD4FEA410CF6
:104938007FEA6C5C4FEA430C18BF7FEA6C5C1BD0C3
:1049480001B050EA410C0CBF52EA430C91EA030F44
:1049580002BF90EA020F0020704710F1000F91EAA1
:10496800030F58BF994208BF90422CBFD8176FEA6F
:10497800E37040F0010070474FEA410C7FEA6C5C3D
:1049880002D150EA013C07D14FEA430C7FEA6C5C44
:10499800D6D152EA033CD3D05DF8040B704700BF70
:1049A8008446104662468C461946634600E000BFBE
:1049B80001B5FFF7B7FF002848BF10F1000F01BD90
:1049C8004DF808EDFFF7F4FF0CBF012000205DF85B
:1049D80008FB00BF4DF808EDFFF7EAFF34BF0120E0
:1049E80000205DF808FB00BF4DF808EDFFF7E0FF79
:1049F80094BF012000205DF808FB00BF4DF808EDCA
:104A0800FFF7CEFF94BF012000205DF808FB00BF30
:104A18004DF808EDFFF7C4FF34BF012000205DF812
:104A280008FB00BF4FEA4102B2F1E04324BFB3F5EF
:104A3800001CDCF1FE5C0DD901F0004C4FEAC0020D
:104A48004CEA5070B2F1004F40EB830008BF20F0F1
:104A58000100704711F0804F21D113F13872BCBFAB
:104A680001F00040704741F480114FEA5252C2F100
:104A78001802C2F1200C10FA0CF320FA02F018BF49
:104A880040F001004FEAC1234FEAD32303FA0CFC9C
:104A980040EA0C0023FA02F34FEA4303CCE77FEA2B
:104AA800625307D150EA01331EBF4FF0FE4040F475
:104AB8004000704701F0004040F0FE4040F4000024
:104AC800704700BF80F0004002E000BF81F0004165
:104AD80042001FBF5FEA410392EA030F7FEA226C9C
:104AE8007FEA236C6AD04FEA1262D2EB1363C1BF2C
:104AF800D218414048404140B8BF5B42192B88BF9B
:104B0800704710F0004F40F4000020F07F4018BFBD
:104B1800404211F0004F41F4000121F07F4118BFDD
:104B2800494292EA030F3FD0A2F1010241FA03FC85
:104B380010EB0C00C3F1200301FA03F100F000436D
:104B480002D5494260EB4000B0F5000F13D3B0F135
:104B5800807F06D340084FEA310102F10102FE2AA4
:104B680051D2B1F1004F40EBC25008BF20F0010014
:104B780040EA03007047490040EB000010F4000FC2
:104B8800A2F10102EDD1B0FA80FCACF1080CB2EB55
:104B98000C0200FA0CF0AABF00EBC25052421843B4
:104BA800BCBFD0401843704792F0000F81F4000159
:104BB80006BF80F400000132013BB5E74FEA41032C
:104BC8007FEA226C18BF7FEA236C21D092EA030F98
:104BD80004D092F0000F08BF0846704790EA010F12
:104BE8001CBF0020704712F07F4F04D1400028BF3F
:104BF80040F00040704712F100723CBF00F5000021
:104C0800704700F0004343F0FE4040F40000704756
:104C18007FEA226216BF08467FEA23630146420202
:104C280006BF5FEA412390EA010F40F48000704715
:104C38004FF0000304E000BF10F0004348BF4042BB
:104C48005FEA000C08BF704743F0964301464FF0F7
:104C580000001CE050EA010208BF70474FF0000353
:104C68000AE000BF50EA010208BF704711F0004394
:104C780002D5404261EB41015FEA010C02BF844664
:104C88000146002043F0B64308BFA3F18053A3F5C3
:104C98000003BCFA8CF2083AA3EBC25310DB01FA0A
:104CA80002FC634400FA02FCC2F12002BCF1004F8E
:104CB80020FA02F243EB020008BF20F0010070471F
:104CC80002F1200201FA02FCC2F1200250EA4C0073
:104CD80021FA02F243EB020008BF20EADC707047B9
:104CE80073B96AB9002908BF0028BCBF00204FF07B
:104CF8000041C4BF6FF000414FF0FF3000F03CB8F6
:104D080082B0EC462DE9005000F006F8DDF804E02A
:104D180002B00CBC704700BF2DE9F041069C154657
:104D280006460F46984600F029F805FB01F300FBFC
:104D38000838A5FB0023B21A434467EB0303C4E910
:104D48000023BDE8F08100BF2DE9F041069C9046A4
:104D580006460F461D4600F05FF900FB05F5A0FB6F
:104D6800082308FB0155B21A2B4467EB0303C4E977
:104D78000023BDE8F08100BF704700BF00292DE97E
:104D8800F043C0F2A6800026002BC0F29C80884623
:104D980094469E46154604460F46002B3DD18A424E
:104DA80059D9B2FA82F33BB1C3F120029F4020FAED
:104DB80002F29D4017439C40290C220CB7FBF1FEE0
:104DC800A8B201FB1E7742EA074700FB0EF3BB427D
:104DD8000AD97F190EF1FF3280F00581BB4240F2FB
:104DE8000281AEF1020E2F44FF1AA4B2B7FBF1F311
:104DF80001FB137744EA074700FB03F0B84208D9E0
:104E08007F1903F1FF3280F0F080B84240F2ED8064
:104E1800023B43EA0E43002203E08B420FD90022F3
:104E28001346341C18BF012460424FF0000565EB9F
:104E380045015840514000196941BDE8F083B3FA73
:104E480083F2002A40F086808B4202D3844500F228
:104E5800DB800123E5E712B90123B3FBF2F5B5FACC
:104E680085F000283BD1781B4FEA154E1FFA85FCC8
:104E78000122B0FBFEF8210C0EFB180741EA074798
:104E88000CFB08F3BB4207D97F1908F1FF3102D2A6
:104E9800BB4200F2BD808846FF1AA4B2B7FBFEF3FE
:104EA8000EFB137744EA07470CFB03FCBC4507D904
:104EB8007F1903F1FF3102D2BC4500F2A7800B46EF
:104EC80043EA0843ADE752426FEA060663EB430341
:104ED8005DE7404261EB41014FF0FF3654E7C0F116
:104EE800200224FA02F107FA00F385404FEA154E32
:104EF800D7401943B7FBFEF20B0C0EFB12771FFAD3
:104F080085FC43EA07430CFB02F79F4204FA00F4CE
:104F180007D95B1902F1FF3074D29F4272D9023A65
:104F28002B44DF1B89B2B7FBFEF80EFB187341EA6E
:104F380003430CFB08F79F4208D95B1908F1FF31BE
:104F48005CD29F425AD9A8F102082B44D81B48EAE0
:104F580002428EE7C2F120032CFA03F10EFA02FE98
:104F680020FA03F741EA0E0E08FA02F028FA03F1D4
:104F78004FEA1E453843B1FBF5F8030C05FB181141
:104F88001FFA8EF743EA014107FB08F38B420CFA3C
:104F980002FC09D911EB0E0108F1FF3930D28B421E
:104FA8002ED9A8F102087144C91A80B2B1FBF5F3F1
:104FB80005FB131140EA014107FB03F78F4208D9AB
:104FC80011EB0E0103F1FF3016D28F4214D9023BC8
:104FD800714443EA0843C91BA3FB0C89494509D31B
:104FE80005D000221DE79646FEE6134611E79440D9
:104FF8004445F6D2013BF4E70346EAE78846A5E7CD
:10500800C846D1E702468CE713460AE7023B57E752
:10501800A8F102082F443FE72DE9F041002B44D1C5
:105028008A42154604464FD9B2FA82F70E464FB166
:10503800C7F12003B94020FA03F602FA07F50E4338
:1050480000FA07F44FEA154E230CB6FBFEF0AFB298
:105058000EFB106143EA014307FB00F1994209D9AD
:105068005B1900F1FF3280F0EC80994240F2E98050
:1050780002382B445A1AA4B2B2FBFEF30EFB1322D9
:1050880044EA024207FB03F7974208D9521903F191
:10509800FF3180F0D880974240F2D580023B43EA46
:1050A800004000263146BDE8F0818B4247D8B3FA6C
:1050B80083F6002E48D18B4202D3824200F2CD8083
:1050C80001203146BDE8F08112B90125B5FBF2F5A2
:1050D800B5FA85F8B8F1000F77D14A1B4FEA154E9B
:1050E800AFB20126B2FBFEF0230C0EFB102143EAFF
:1050F800014107FB00F38B4207D9491900F1FF3240
:1051080002D28B4200F2BA801046C91AA4B2B1FB8F
:10511800FEF30EFB131144EA014407FB03F7A74211
:1051280008D9641903F1FF3280F08F80A74240F25A
:105138008C80023B43EA00403146BDE8F0810026FE
:1051480030463146BDE8F081C6F1200422FA04F564
:10515800B3402B4320FA04FC01FA06F721FA04F5C0
:105168004FEA134E4CEA0707B5FBFEF8390C0EFB65
:1051780018551FFA83FC41EA05450CFB08F1A942C2
:1051880002FA06F204D9ED1808F1FF3467D3A046F5
:105198006D1ABFB2B5FBFEF40EFB145547EA054184
:1051A8000CFB04FC8C4504D9C91804F1FF355CD309
:1051B8002C4644EA0844CCEB0101A4FB02239942A3
:1051C80048D344D0204600266CE7C8F1200401FAF1
:1051D80008F305FA08F520FA04F7E1404FEA154EFE
:1051E8001F43B1FBFEF63A0C0EFB16111FFA85FCA5
:1051F80042EA01430CFB06F29A4200FA08F407D986
:105208005B1906F1FF3137D29A4235D9023E2B4459
:105218009B1ABFB2B3FBFEF00EFB103347EA034301
:105228000CFB00F1994207D95B1900F1FF3221D23A
:1052380099421FD902382B445A1A40EA0646674653
:1052480050E7104616E70B4629E7134672E7B040C9
:105258009042B7D2601E002624E7304622E7A942D2
:1052680095D9A8F102081D4492E78C45A0D9023CC3
:1052780019449EE71046DFE70E46C9E7023829447D
:1052880043E700BF10F8012B11F8013B012A28BFA2
:105298009A42F7D0D01A704700F1080343604FF0E4
:1052A800FF32C360036100238260036070470023FC
:1052B8000361704743684B609A688A609A685160D6
:1052C8009960086103680133036070470A68531CDA
:1052D80030B501D1036907E000F108035C6825686F
:1052E800954201D82346F9E75A684A6091608B6075
:1052F8005960086103680133036030BD4268816802
:10530800036991608268416851605A68824204BFAB
:1053180082685A6000220261186801381860704774
:10532800064A13681968064B11B94FF0FF3203E0BB
:105338001268D268D26852681A607047A4060020C2
:105348004807002010B50E4B1A6850600D4A1268C5
:105358009042044607D20C4A10681968BDE810400C
:105368000431FFF7B3BF094A106819680431FFF721
:10537800ADFF074B1A68944238BF1C6010BD00BFD0
:10538800440700205007002054070020A4060020EE
:10539800480700202DE9F84F0A9E0C9C0F46154639
:1053A8009A46814628B96748674940F22D2205F098
:1053B80051F9052E05D96548634940F22E2205F0BA
:1053C80049F93CB9A80001F01BFB8346002800F00E
:1053D800B48000E0A3465C2001F012FB044688B1CB
:1053E800AD002A46C0F830B0A521584611F073FC2C
:1053F800236B043D1D4425F007057B1E04F1330291
:10540800093705E0584601F099FB96E0BB4206D003
:1054180013F8011F02F8011F19780029F6D1052E8B
:105428004FF0000BB04604F1040728BF4FF0050801
:10543800384684F83DB0C4F82C80C4F84880C4F8D5
:105448004CB0FFF734FF04F11800FFF730FFC8F144
:105458000603A361C4F854B024616462C4F850B070
:1054680084F858B028464946524601F0E1FB0B9BA8
:10547800206003B11C6001F0FDFB354A354D13680F
:10548800DFF8F890013313602B683BBB2C6012687F
:10549800012A2BD1984609EB080008F11408FFF7F8
:1054A800FBFEB8F1780FF6D1DFF8D4A0DFF8D4808E
:1054B8005046FFF7F1FE4046FFF7EEFE2648FFF79D
:1054C800EBFE2648FFF7E8FE2548FFF7E5FE254BEB
:1054D800C3F800A0244BC3F8008007E0234B1B68E7
:1054E80023B92B68DB6AB34298BF2C60204A214954
:1054F800136801331360E26A23640B68012404FA19
:1055080002F0034314200B6000FB02903946FFF7BA
:10551800D1FE01F0D1FB154B1B685BB12B68DB6A30
:10552800B34207D2144B4FF080521A60BFF34F8F2B
:10553800BFF36F8F2046BDE8F88F4FF0FF30BDE80E
:10554800F88F00BFE16E0108C86E0108EC6E010813
:10555800700700204407002058070020900600200C
:1055680088070020A406002054070020A806002071
:105578006C0700209C07002004ED00E0C80600200E
:10558800B0060020740700201FB500240094019481
:10559800029403941648174996222346FFF7FAFE09
:1055A800012818D101F056F8012814D14FF05F03F3
:1055B80083F31188BFF36F8FBFF34F8F0E4B4FF0FC
:1055C800FF321A600D4B18600D4B1C6004B0BDE82B
:1055D800104001F0DDBB40B90A480B4940F2516266
:1055E80004B0BDE8104005F035B804B010BD00BFE8
:1055F80081590008A06F010848070020A80600206C
:1056080050070020A56F0108C86E0108024A1368F8
:1056180001331360704700BF4C070020014B186826
:10562800704700BF500700202DE9F047394B3A4A30
:1056380019681160394A1268002A3AD11A68013289
:105648001A601F68A7B9364C23681B682BB1354808
:10565800354940F2AA7204F0FDFF344B22681968FC
:1056680021601A60324A136801331360FFF758FE4D
:10567800304EDFF8D0803368DFF8CC909F424FF08F
:1056880000040BD3264B1A681268002A37D01B680F
:10569800DB68DD686B689F4211D23360D9F800304F
:1056A800DA6A1423534358F80330022B28BF012425
:1056B80028E0214A136801331360002422E005F131
:1056C800040A5046FFF71AFEAB6A1BB105F1180031
:1056D800FFF714FE1948E96A026801238B40134357
:1056E8000360142000FB01805146FFF7E3FDD9F861
:1056F8000030EA6ADB6A9A4228BF0124C2E74FF009
:10570800FF33CAE70E4B1B68002B18BF0124204645
:10571800BDE8F08750070020080000E04C07002093
:10572800A4060020AD6F0108C86E010854070020C8
:105738004007002048070020C40600209C070020DE
:10574800A0070020C80600204407002070B52E4C92
:1057580023682BB92D482E4940F28E6204F07AFF57
:1057680001F088FA2368013B236023680BB1002409
:1057780045E0284B1B68002BF9D0274B1A680AB361
:10578800DB68DC68261D04F11800FFF7B7FD30461A
:10579800FFF7B4FD2149E26A0B68012505FA02F01A
:1057A80003430B601E4B142000FB02303146FFF709
:1057B80081FD1C4BE26A1B68DB6A9A4224BF1A4BC4
:1057C8001D60DAE7194C2368ABB9174B1C68012C2C
:1057D800CDD1174B4FF080521A60BFF34F8FBFF3F4
:1057E8006F8F0CE0FFF720FF10B10F4B01221A60FA
:1057F8002368013B23602368002BF3D1E5E701F020
:105808005BFA204670BD00BF4C070020D86F010826
:10581800C86E010870070020580700209C07002068
:10582800C806002044070020A0070020C406002066
:1058380004ED00E038B50C46054628B92548264948
:1058480040F23F3204F006FF2CB9244822494FF4B5
:10585800507204F0FFFE224B1B682BB121481E49F1
:1058680040F2413204F0F6FEFFF7D0FE1E4B2A68E4
:105878001B689342144402D2944207D201E0944236
:1058880006D39C4294BF0023012302E0002300E0DA
:1058980001232C608BB1154D28680430FFF72EFDCD
:1058A80040B92B681249D86A0A680123834022EA62
:1058B80003030B602046FFF745FDFFF747FF38B9A4
:1058C8000C4B4FF080521A60BFF34F8FBFF36F8FAE
:1058D80038BD00BFED6F0108C86E010800700108EF
:1058E8004C0700204F6F0108500700204407002094
:1058F8009C07002004ED00E038B5044640B9174B7A
:105908004FF080521A60BFF34F8FBFF36F8F38BDCF
:10591800134B1B682BB11348134940F2A33204F010
:1059280099FEFFF773FE114D114B1B682868043070
:105938001C44FFF7E3FC40B92B680E49D86A0A6893
:105948000123834022EA03030B602046FFF7FAFC99
:10595800FFF7FCFE0028D2D038BD00BF04ED00E000
:105968004C0700204F6F0108C86E0108440700204B
:10597800500700209C07002008B5124C2368F3B19B
:10598800114DFFF743FE2E68FFF7E0FE002EF4D01E
:1059980001F070F9EB68DD68281DFFF7AFFC0B4AD2
:1059A8001368013B13602368013B236001F084F90D
:1059B800286B01F0C3F8284601F0C0F8DDE703F0D2
:1059C800BBFBDAE7AC060020900600207007002039
:1059D80038B50D46044608B9044B1C6801F04AF96D
:1059E8002565BDE8384001F067B900BF44070020CD
:1059F80038B5184B1A68184B0AB1012228E01A600A
:105A0800164B1C68B4FA84F4E4B2C4F11F041423DE
:105A1800134D6343EB582BB91248134940F6C8029B
:105A280004F018FE142202FB04F3E918083348684E
:105A3800406848602B44984204BF43684B6002FBAF
:105A480004546368DA68094B1A601B685A6B084B80
:105A58001A6038BD4C070020A00700209C070020D2
:105A6800C806002018700108C86E01084407002005
:105A7800040000E070B50D46064628B914481549DB
:105A880040F6DA0204F0E6FD134C2168304618317E
:105A9800FFF71CFC20680430FFF730FC40B923688E
:105AA8000E49D86A0A680123834022EA03030B607F
:105AB8006B1C06D121680A480431BDE87040FFF725
:105AC800F9BB084B18682844BDE87040FFF73ABC9A
:105AD8005F700108C86E0108440700209C07002079
:105AE8008807002050070020F8B50D4616460746DF
:105AF80028B91548154940F6591204F0ABFD144C65
:105B0800216838461831FFF7D5FB20680430FFF7C5
:105B1800F5FB40B923680F49D86A0A680123834016
:105B280022EA03030B60012E06D121680A480431DA
:105B3800BDE8F840FFF7BEBB084B18682844BDE82D
:105B4800F840FFF7FFBB00BF5F700108C86E01088F
:105B5800440700209C0700208807002050070020E9
:105B680038B5C368DC682CB91648174940F6B41232
:105B780004F070FD04F118052846FFF7BFFB134B2E
:105B88001B687BB9251D2846FFF7B8FB1048E16A5A
:105B9800026801238B40134303600E4B142000FB63
:105BA800013000E00C482946FFF784FB0B4BE26A02
:105BB8001B68DB6A9A4283BF094B012018600020EA
:105BC80038BD00BF85700108C86E01084C07002069
:105BD8009C070020C8060020580700204407002022
:105BE800A007002010B5044628B90648064940F623
:105BF800142204F02FFD054B1B682360044B1B681F
:105C0800636010BDB4700108C86E01084007002029
:105C18005007002038B50D46044628B915481649DE
:105C280040F61E2204F016FD2DB91448124940F61C
:105C38001F2204F00FFD01F01DF8114B19682B68A5
:105C48005A1C10D00F4A106822689042626801D02E
:105C580091420AD2881A984207D2521A13442B60EA
:105C68002046FFF7BFFF002400E0012401F024F8DC
:105C7800204638BDB4700108C86E0108BE7001081E
:105C88005007002040070020014B01221A6070478E
:105C9800A0070020054B1B6833B1054B1B68002B80
:105CA8000CBF02200020704701207047A806002082
:105CB8004C0700202DE9F0410446002838D01D4D3E
:105CC800C36A2A68D26A934232D282691A4E002A7B
:105CD800A1BF2A68D26AC2F106028261142742690A
:105CE80007FB03639A4220D100F104084046FFF7FE
:105CF80005FB124B48B9E06A4743F2592AB91968BB
:105D08000122824021EA02021A602A68D26AE2620B
:105D180001201C68904020431860142000FB02609A
:105D28004146BDE8F041FFF7C5BA2B68DB6AC3629C
:105D3800BDE8F08144070020C80600209C07002029
:105D480070B5044608B9002070BD204B1B68984206
:105D580005D01F481F4940F6A75204F07BFCE36CAE
:105D68002BB91D481B4940F6A95204F073FCE36C9B
:105D7800E16AA26C013B9142E364E4D0002BE2D1DA
:105D8800251D2846FFF7BAFA1449154A50B9E66A9C
:105D980014237343CB582BB910680123B34020EA6E
:105DA80003031360A36CE362C3F10600A0611068EB
:105DB800012404FA03F630431060142000FB03109A
:105DC8002946FFF777FA204670BD00BF4407002038
:105DD800CC700108C86E0108E2700108C8060020EE
:105DE8009C070020044B1A681AB11968CA6C013262
:105DF800CA641868704700BF4407002038B51546C4
:105E0800026C044632B9056845BB4068FFF798FF45
:105E1800656024E06DB9806810F052FFA268236CB9
:105E280013446268A360934218D32368A36028468A
:105E380015E0C06810F044FF236CE26821685B42FB
:105E48001A448A42E2603EBF62689B18E360022DF2
:105E580004D1A36B13B1A36B013BA3630020A36B15
:105E68000133A36338BD10B5026C03466AB1C46838
:105E78001444C4604068844224BF1868D860BDE8F0
:105E880010400846D96810F01BBF10BD10B5044675
:105E980000F0F0FEA36C002B0CDD636A53B104F133
:105EA8002400FFF75DFE08B1FFF7EEFEA36C013B8F
:105EB800A364EFE74FF0FF33A36400F0FDFE00F0AA
:105EC800D9FE636C002B0CDD236953B104F110007B
:105ED800FFF746FE08B1FFF7D7FE636C013B63642A
:105EE800EFE74FF0FF336364BDE8104000F0E4BE15
:105EF80038B50D46044628B91A481B494FF4847230
:105F080004F0A8FB00F0B6FE216CE36B2268A260E7
:105F18004B43D0185B1A13446060E36000204FF0D5
:105F2800FF33A0636364A36485B92369B3B104F143
:105F38001000FFF715FE012810D10C4B4FF08052CE
:105F48001A60BFF34F8FBFF36F8F07E004F11000A3
:105F5800FFF7A2F904F12400FFF79EF900F0ACFE68
:105F6800012038BD437101084B71010804ED00E0C0
:105F7800F8B50D461746064628B91448144940F2A4
:105F8800431204F067FB1DB105FB06F0013000E089
:105F98002846543000F034FD044670B10DB9206035
:105FA80002E000F154030360E66325642046012102
:105FB800FFF79EFF84F8507005E00648044940F258
:105FC8007F1204F047FB2046F8BD00BF647101084A
:105FD8004B710108A56F01082DE9FF410F46019299
:105FE8001E46044628B95948594940F2672204F028
:105FF80031FB1FB9236C002B40F09080022E03D197
:10600800E36B012B40F09180FFF744FE18B9019B28
:10601800002B40F091804FF0000800F02BFEA26B9F
:10602800E36B9A4201D3022E1FD1E36C494A43F431
:1060380080731360204639463246FFF7DFFE636AF5
:1060480033B104F12400FFF78BFD012809D100E0EA
:1060580038B1414B4FF080521A60BFF34F8FBFF3F6
:106068006F8F00F029FE01206DE0019D15B900F049
:1060780023FE4CE0B8F1000F02D102A8FFF7B2FDF1
:1060880000F01AFEFFF7C2FA00F0F4FD636C01336A
:1060980004BF00236364A36C013304BF0023A3641B
:1060A80000F00AFE02A801A9FFF7B4FD50BB00F0FA
:1060B800E1FDD4F83880E56B00F0FEFDA8451BD162
:1060C800E36C244A43F48063136004F110000199DF
:1060D800FFF7D0FC2046FFF7D9FEFFF737FB10B1DA
:1060E8004FF0010899E71C4B4FF080521A60BFF33C
:1060F8004F8FBFF36F8FF3E72046FFF7C7FEFFF719
:1061080025FBEDE72046FFF7C1FEFFF71FFBE36C19
:10611800104A43F400731360002014E00F480C4940
:106128004FF41A7204F096FA68E70D48084940F2ED
:10613800692204F08FFA67E70A4805494FF41B7291
:1061480004F088FA67E704B0BDE8F08143710108FC
:106158004B7101080C0000E004ED00E086710108B5
:10616800D67101081D72010870B50646542000F06A
:1061780047FC0446D8B101230025C3634FF0FF3321
:10618800856345604364056083648560C560056414
:1061980080F850601030FFF77FF804F12400FFF713
:1061A8007BF8204629462A462B46FFF715FF20464E
:1061B80070BD00002DE9F0410E4690461D4604468C
:1061C80028B92748274940F2244204F043FA0EB977
:1061D800236C9BBB022D02D1E36B012B35D100F060
:1061E80049FEEFF311874FF05F0383F31188BFF384
:1061F8006F8FBFF34F8FA26BE36B9A4201D3022DCF
:106208001AD1204631462A46FFF7F8FDA36C013320
:106218000DD1636A73B104F12400FFF7A1FC48B102
:10622800B8F1000F06D00120C8F8000014E0A36CF4
:106238000133A36401200FE000200DE00A4809495A
:1062480040F2254204F006FAC4E70848054940F23E
:10625800264204F0FFF9C2E787F31188BDE8F08110
:10626800437101084B71010886710108D671010854
:1062780070B50D46044628B92148224940F2BF426C
:1062880004F0E8F9236C2BB11F481E4940F2C342C1
:1062980004F0E0F923680BB963683BBB00F0EAFD42
:1062A800EFF311864FF05F0383F31188BFF36F8F0D
:1062B800BFF34F8FA26BE36B9A4215D2A36B0133E6
:1062C800A363A36C01330AD1636A5BB104F12400B0
:1062D800FFF746FC30B12DB1012028600DE0A36C1A
:1062E8000133A364012008E0002006E007480549BF
:1062F8004FF4996204F0AEF9D0E786F3118870BDC7
:10630800437101084B710108737201088C7201080E
:106318002DE9FF410E4601929846044628B9564891
:10632800564940F25B5204F095F91EB9236C002BD4
:1063380040F09080FFF7AEFC18B9019B002B40F0AD
:106348009080002700F096FCA36B63B3204631468B
:10635800E568FFF788FDB8F1000F10D1A36B013B8A
:10636800A363236813B9FFF73DFD60602369B3B1E8
:1063780004F11000FFF7F4FB012810D107E0636A6D
:10638800E56063B104F12400FFF7EAFB38B13C4B48
:106398004FF080521A60BFF34F8FBFF36F8F00F03A
:1063A8008BFC012064E0019D15B900F085FC4FE0ED
:1063B80017B902A8FFF716FC00F07EFCFFF726F9D4
:1063C80000F058FC636C013304BF00236364A36CC2
:1063D800013304BF0023A36400F06EFC02A801A9E6
:1063E800FFF718FC78BB00F045FCA56B00F064FCD7
:1063F8001DBBE36C234A43F440731360236833B92D
:1064080000F038FC6068FFF755FC00F055FC04F11B
:1064180024000199FFF72EFB2046FFF737FDFFF711
:1064280095F908B101278DE7154B4FF080521A6096
:10643800BFF34F8FBFF36F8FF4E72046FFF726FDBA
:10644800FFF784F9EEE72046FFF720FDFFF77EF916
:1064580000200DE00C48094940F25C5204F0FAF8BB
:1064680068E70A48054940F25F5204F0F3F868E724
:1064780004B0BDE8F08100BF437101084B71010809
:1064880004ED00E00C0000E0E77201081D7201084D
:10649800F8B50E461746044628B91D481D4940F26E
:1064A800156204F0D7F80EB9236C3BBB00F0E2FC90
:1064B800EFF311854FF05F0383F31188BFF36F8FFC
:1064C800BFF34F8FA06B00B320463146FFF7CBFCDC
:1064D800A36B013BA363636C01330AD123695BB1EE
:1064E80004F11000FFF73CFB30B12FB101203860F8
:1064F8000BE0636C01336364012006E0064805493C
:1065080040F2166204F0A6F8D0E785F31188F8BDCA
:10651800437101084B710108E772010810B5044680
:1065280028B9064806494FF4D46204F093F800F0FD
:10653800A1FBA46B00F0C0FB204610BD447101080C
:106548004B71010830B50023064A52F8335002EB6C
:10655800C3041DB942F83310606030BD01330A2B03
:10656800F2D130BD6091002070B504460E46154644
:1065780000F080FB636C013304BF00236364A36CE9
:10658800013304BF0023A36400F096FBA36B2BB96F
:1065980004F1240031462A46FFF7A6FA2046BDE852
:1065A8007040FFF773BC0000F8B5134C00F062FBB5
:1065B8002568EDB9114F124E3846FEF76DFE30468C
:1065C800FEF76AFE0F4B1F600F4B14200C212A4662
:1065D8001E60FFF7CDFC206028B90C480C4940F23A
:1065E8001A3204F037F8206810B10A49FFF7AAFFF9
:1065F800BDE8F84000F060BBD4070020A8070020E1
:10660800BC070020A4070020D80700204B7301080E
:10661800577301087173010810B50446914241602F
:10662800206105D8D21A83699A420CD2074B04E03C
:106638009A4201D2994206D2054B1868211DFEF7ED
:1066480045FE002010BD012010BD00BFD807002066
:10665800A40700201FB5FFF7A7FF0D4B1B683BB928
:106668000C480D494FF4877203F0F4FF00200CE04A
:1066780001230093002301930293039307480849D9
:106688009622FEF787FE0028EAD005B05DF804FBE5
:10669800D4070020A56F010857730108DD670008BB
:1066A800767301082DE9F041804617461E460D46CF
:1066B80089B12C2000F0A4F9044698B1FFF774FFC3
:1066C800069BC4F80080A561E76126626362201D0D
:1066D800FEF7EDFD06E0054805494FF49B7203F00F
:1066E800B9FF2C462046BDE8F08100BF7E73010843
:1066F800577301082DE9FF410D4690461F4606468F
:1067080028B91348134940F2411203F0A3FF124C71
:106718002068C8B1052D0195CDF8088003960EDCD8
:10672800FFF7B8FA022818BF0022206808BF0A9AA3
:1067380001A90CBF00231346FFF74EFC04E001A992
:106748003A460023FFF736FD04B0BDE8F08100BFEC
:106758009A73010857730108D4070020F7B5194D3B
:106768002B681A683AB3DB68DC681E68271D384650
:10677800FEF7C4FD636A20469847E369012BEED112
:10678800A3693344B34206D9636024612868394653
:10679800FEF79CFDE3E700210091204632460B46B8
:1067A800FFF7A8FF0028DAD1074808494FF43F72DD
:1067B80003F050FFD3E7064A11682960136003B05D
:1067C800F0BD00BFA4070020A1730108577301089A
:1067D800D80700202DE9F04786B0DFF8ACA1DAF839
:1067E80000301C68B4FA84F464091CB9DB68D3F877
:1067F800008001E04FF000085C4DFEF707FFFEF750
:106808000DFF2B68984281462F4603D2FFF7A6FF5B
:10681800012300E00023C5F80090554E002B42D11B
:1068280044BBC8452DD8FEF791FFDAF80030DB6885
:10683800DD68281DFEF762FDEB69012B16D1A969F9
:10684800284641444A464346FFF7E6FE01280DD153
:1068580000942846214642462346FFF74BFF28B9B5
:106868004448454940F2931203F0F4FE6B6A284607
:1068780098471EE0414B1B681C68B4FA84F2520921
:1068880000E022463068C9EB0801FFF76DFEFEF70D
:106898005DFF70B93A4B4FF080521A60BFF34F8FCB
:1068A800BFF36F8F05E0FEF751FF02E0039B002B5B
:1068B80008DA0022306803A91346FFF729FD0028EB
:1068C800F4D18AE7059C636913B1201DFEF716FD14
:1068D800FEF7A4FE3B689842054601D2FFF73EFF4B
:1068E800039A3D60092AE4D80123934013F40478FD
:1068F8002AD113F0C70F05D19B06DAD5204600F040
:106908001DF9D6E7049BA169204619442A46FFF7DA
:1069180083FE0128CDD1636A20469847E369012B9D
:10692800C7D1A269049BCDF800801A44204641468D
:106938004346FFF7DFFE0028BBD10E480E494FF44F
:10694800287203F087FEB4E7049BA3612BB90D48B6
:10695800094940F2B72203F07DFEA1692046294487
:106968002A462B46FFF758FEA3E700BFD0070020B2
:10697800D4070020A173010857730108D807002025
:1069880004ED00E0A9730108A407002010B504462F
:1069980028B9064806494FF4537203F05BFE00F02D
:1069A80069F9246A00F088F9204610BD9A73010835
:1069B8005773010810B5104B1A68824201D213466A
:1069C800FAE759685C18844201BF406809181846FC
:1069D800596041684418944209D1084C2468A2427D
:1069E8001FBF5268891841601A6818BF1268026090
:1069F800834218BF186010BDE4070020E00700209C
:106A08002DE9F8430446FEF701FE4249424D0B6862
:106A1800FBB9424A424E50071FBF0732414B22F092
:106A280007029B1A08BF47F230531344083B23F070
:106A38000703002070603260586018600B60981A75
:106A48001360394B50601860384B18604FF00043A2
:106A58002B602B681C424BD1002C47D008346207AE
:106A68001CBF24F007040834002C3FD02F4B1A68B1
:106A7800944298463CD82A4B1E687268A24203D3B7
:106A88000A68964206D133E03268002AF8D03346C5
:106A98001646F2E732681F681A6073681B1B102BD2
:106AA80007F1080711D906EB040919F0070F04D0FC
:106AB8001F482049E82203F0CDFD73681B1BC9F865
:106AC800043048467460FFF775FF17497268D8F8B4
:106AD800003008689B1A8342C8F8003038BF0B6042
:106AE8002B681A4300237260336002E0274600E0F7
:106AF8000027FEF72BFE0FB902F0A8F97B0705D097
:106B08000D480C494FF4947203F0A4FD3846BDE8D3
:106B1800F88300BFE00700201C7D0020EC07002060
:106B2800E40700201C7D0020207D0020DC070020D9
:106B3800CE7301080F7401083A74010838B5044689
:106B480088B3194B50F8042C196811421D4605D119
:106B5800164817494FF49E7203F07CFD54F8083C20
:106B68002BB11448124940F23D1203F073FD54F85A
:106B7800043C2A681A4216D054F8081C99B923EA2A
:106B8800020344F8043CFEF741FD0B4A54F8041C88
:106B98001368A4F108000B441360FFF70BFFBDE86E
:106BA8003840FEF7D3BD38BD1C7D0020777401083E
:106BB8000F740108A8740108DC070020014B18684D
:106BC800704700BFDC07002006480068006880F3B3
:106BD800088862B661B6BFF34F8FBFF36F8F00DFCF
:106BE80000BF000008ED00E0DFF80C00016841F488
:106BF800700101607047000088ED00E008B5094B9E
:106C08001B68013305D00848084940F2071203F011
:106C180021FD4FF05F0383F31188BFF36F8FBFF33C
:106C28004F8FFEE700000020C8740108E2740108D5
:106C38004FF0807300E90A00054B40F80C3C6FF0F8
:106C4800020340F8202C40F8243C4438704700BF29
:106C5800056C0008064B19680868B0E8F04F80F327
:106C68000988BFF36F8F4FF0000080F311887047D9
:106C7800440700204FF05F0383F31188BFF36F8F41
:106C8800BFF34F8F084A13680133012B13600AD1F1
:106C9800064B1B6813F0FF0F05D00548054940F265
:106CA8009F1203F0D7BC70470000002004ED00E0FD
:106CB8002C750108E274010810B5084C23682BB93B
:106CC800074808494FF4D37203F0C4FC2368013B1A
:106CD80023600BB983F3118810BD00BF00000020AA
:106CE80061750108E2740108EFF30980BFF36F8F43
:106CF800144B1A681EF0100F08BF20ED108A20E907
:106D0800F04F10604DF8043D4FF05F0080F311889C
:106D1800BFF34F8FBFF36F8FFEF76AFE4FF000008F
:106D280080F3118808BC19680868B0E8F04F1EF0B5
:106D3800100F08BFB0EC108A80F30988BFF36F8F7B
:106D4800704700BF4407002008B5EFF311834FF0E8
:106D58005F0282F31188BFF36F8FBFF34F8FFEF787
:106D680063FC18B1034B4FF080521A60002383F381
:106D7800118808BD04ED00E0034B044A1A6007229D
:106D880043F8042C704700BF14E000E03F90020075
:106D980013B52C4B2C4A196891421C4605D12B4837
:106DA8002B4940F23D1203F055FC2268294B9A42C8
:106DB80005D1294826494FF49F7203F04BFC274B15
:106DC8001A78D2B20192FF221A701B78244ADBB2D9
:106DD8008DF803309DF8033003F05F031370214AE8
:106DE800072313609DF80310090603F1FF3007D548
:106DF8009DF803305B00DBB28DF803300346F1E702
:106E08001B0203F4E0631360019B144ADBB21370A6
:106E1800154B1A6842F47F021A601A6842F07F42E2
:106E28001A60FFF7A9FF114B00221A60FFF7DCFE7A
:106E38000F4A136843F040431360FFF7C5FEFFF79E
:106E4800DDFE00BF00ED00E071C20F41737501085F
:106E5800E274010870C20F419675010800E400E071
:106E6800247D0020287D002020ED00E00000002087
:106E780034EF00E008B5EFF305830F2B0BD90E4A6A
:106E88009B5C0E4A12789A4205D90D480D494FF479
:106E9800387203F0DFFB0C4B0C4A1B68126803F4D2
:106EA800E063934207D90A4806494FF43C72BDE8AB
:106EB800084003F0CFBB08BDF0E300E0247D0020CC
:106EC800B9750108E27401080CED00E0287D002086
:106ED800E375010808B54FF48070012100F05CFCEF
:106EE8004FF480700021BDE8084000F055BC000058
:106EF800436823F040720B6822F4807213430A79C6
:106F080043EA022343600B69CA681A438B6810B5C9
:106F18001A438468084B234013434A7943EA4203DF
:106F28008360C36A23F470020B7D013BDBB242EA43
:106F38000353C36210BD00BFFDF7FFC00023036009
:106F4800037143718360C360036101230375704754
:106F580010B5074C074B6268134090E806001143D0
:106F680082681143C2680A431343636010BD00BFBF
:106F780000230140E030FCFF00230360436083608E
:106F8800C3607047836811B143F0010301E023F047
:106F9800010383607047092970B50CD9A1F10A046F
:106FA800C66804EB44040725A54026EA0505A34066
:106FB8002B43C36009E0056901EB41060724B4408F
:106FC80025EA0404B34023430361062A0BD8013A97
:106FD800446B02EB82021F23934024EA030391408F
:106FE8001943416370BD0C2A0BD8073A046B02EBB6
:106FF80082021F23934024EA03039140194301634B
:1070080070BD0D3AC46A02EB82021F23934024EA42
:10701800030391401943C16270BD836843F0804304
:1070280083607047C06C80B270470368194214BF10
:107038000120002070470000044BDA6809B11043B2
:1070480001E022EA0000D860704700BF002004E099
:10705800036823F001030360002303604360836037
:10706800C360036121234361294B984217D0294B00
:1070780098421BD0284B984220D0284B984225D0C4
:10708800274B98422AD0274B98422ED0264B98421D
:1070980032D0264B984236D0254B984203D13D2218
:1070A80043F8082C7047234B984204D14FF474627C
:1070B80043F8202C7047204B984204D14FF47412A7
:1070C80043F8382C70471D4B984204D14FF0746236
:1070D80043F8502C70471A4B984203D1194A43F889
:1070E800642C7047184B984203D1184A43F87C2CFB
:1070F8007047174B984203D1164A43F8942C7047AF
:10710800154B984203D14FF03D5243F8AC2C7047D1
:10711800106002402860024040600240586002400F
:107128007060024088600240A0600240B86002407F
:1071380010640240286402404064024058640240DF
:10714800706402403D00002088640240400F002027
:10715800A064024000003D20B86402400268134B5E
:1071680010B51340CC680A6814434A6914438A6905
:107178001443CA6914430A6A14434A6A14438A6A5C
:1071880014434A6B14438A6B2243134303604369D5
:107198000C6B23F00702CB6A2343134343610B694B
:1071A80043604B6883608B68C36010BD3F801CF0F0
:1071B800036811B143F0010301E023F00103036008
:1071C800704741607047406880B27047006800F0BF
:1071D8000100704710B50A4B0A4A0B4CA04294BFF5
:1071E800184610468B004CBF4368036821F0F02115
:1071F80021F08211194214BF0120002010BD00BFE8
:1072080000600240006402400F64024010B5084A62
:10721800084B094CA04294BF1846104611F0005F75
:1072280021F0F02121F0821114BFC160816010BDEE
:1072380000640240006002400F6402400B0611D552
:1072480043694AB143F080038029436114D003683D
:1072580001F01E0119430EE023F0800380294361E9
:1072680004D17047802907D0002AF0D1036801F0C3
:107278001E0123EA0101016070470000104A114B0A
:1072880010B5114CA04294BF1C46144621F0F023BF
:1072980023F0C3122AB1006800F01E0000EAD122D0
:1072A80002E0406900F0800289004CBF60682068F5
:1072B80023F08213184002D0101C18BF012010BD03
:1072C80000640240006002400F64024010B5084AA2
:1072D800084B094CA04294BF1846104611F0005FB5
:1072E80021F0F02121F0821114BFC160816010BD2E
:1072F80000640240006002400F640240837910B5C8
:107308000468002B31D01E4B196821EA04021A6068
:107318005A68016822EA01025A600279016802F19A
:10732800804202F59E321468214311609A68016810
:1073380022EA01029A60DA68016822EA0102DA6048
:1073480042790168102A0BBF9A6802F18043114301
:1073580003F59E3303BF9960D96802681A680BBFAA
:107368000A431143DA60196010BD037903F18043C1
:1073780003F59E331A6822EA04021A6010BD00BFA2
:10738800003C0140014B5861704700BF003C014080
:10739800034B5B69184214BF01200020704700BFEF
:1073A800003C0140014B5861704700BF003C014060
:1073B800F0B5002201230C6893401C409C4229D15F
:1073C800550003230668AB40DB431E4006600E7978
:1073D8000768AE403E4306600E79013E012E11D883
:1073E80086681E4086604E798768AE403E43866058
:1073F800466826EA040444608C7946689440A4B23E
:1074080034434460C4682340C360CB79C468AB404C
:107418002343C3600132102ACCD1F0BD4FF6FF736D
:1074280003600023037143718371C371704703695B
:10743800194214BF0120002070470183704741831F
:1074480070470AB1018370474183704710B501F056
:107458000703C90800EB81009B00046A0F219940CB
:1074680024EA01010162016A9A401143016210BDD8
:1074780008B5134B984207D14FF40010012100F0D2
:107488007FF94FF4001014E00E4B984207D14FF4E7
:107498008000012100F074F94FF4800009E00A4BE4
:1074A80098420BD14FF40000012100F069F94FF424
:1074B80000000021BDE8084000F062B908BD00BF27
:1074C8000054004000580040005C00407FB58688AA
:1074D80026F03F060446360468460D46360C00F092
:1074E800DBF8029A2C48B2FBF0F081B20E43A6807A
:1074F80023882A4E23F001031B041B0C23802B68CE
:10750800B3420AD85B000131B2FBF3F39BB2032B01
:1075180089B298BF0423218423E0EE884BF6FF71DB
:107528008E421BBF19214B4303EB4303B2FBF3F31A
:1075380015BF9BB2B2FBF3F343F480439BB2C3F392
:107548000B020AB943F001034FF4967101FB00F2F4
:107558004FF47A7192FBF1F2013292B243F4004394
:107568002284A38323889BB243F0010323802388CA
:107578006989AA8823F4816323F002031B040A4360
:107588001B0C13439BB223802A89AB8913439BB2FC
:10759800238104B070BD00BF40420F00A0860100E7
:1075A80012B141F0010101E001F0FE0189B201824E
:1075B8007047038819B19BB243F4806303E023F456
:1075C80080631B041B0C0380704701827047008A8C
:1075D800C0B27047838819B19BB243F4006303E0DB
:1075E80023F400631B041B0C83807047838819B144
:1075F8009BB243F4805303E023F480531B041B0C19
:107608008380704783889BB20AB1194301E023EA5B
:1076180001018180704782B00023009301930B0F12
:1076280001900093009B21F07F4113B1019B14331B
:1076380002E0019B090C18330193019B1B68194256
:1076480014BF0120002002B07047C94389B281826B
:1076580070470000014B1860704700BF00300040C1
:10766800014B5860704700BF00300040014B9860E4
:10767800704700BF00300040024B4AF6AA221A6049
:10768800704700BF00300040024B4CF6CC421A60F5
:10769800704700BF0030004010B51D4A936803F0E2
:1076A8000C03042B03D0082B03D01A4B18E01A4BF9
:1076B80016E05168536811F4800F03F03F035168D6
:1076C80014BF154A134AB2FBF3F3114A5268C2F3C6
:1076D8000142C1F3881101324B435200B3FBF2F36C
:1076E8000B4A036093680D49C3F30313CC5C03682A
:1076F800E34043609468C4F382240C5D23FA04F4E5
:1077080084609268C2F342328A5CD340C36010BD81
:10771800003802400024F40000127A00040000201F
:10772800044B1A6B09B1104301E022EA0000186308
:10773800704700BF00380240044B5A6B09B1104330
:1077480001E022EA00005863704700BF0038024099
:10775800044B1A6C09B1104301E022EA00001864D6
:10776800704700BF00380240044B5A6C09B11043FF
:1077780001E022EA00005864704700BF0038024068
:10778800044B1A6A09B1104301E022EA00001862AA
:10779800704700BF00380240044B5A6A09B11043D1
:1077A80001E022EA00005862704700BF003802403A
:1077B8004209012A074B01D11B6803E0022A0CBFCA
:1077C8001B6F5B6F00F01F0023FA00F000F0010050
:1077D800704700BF00380240024A536F43F080737D
:1077E800536770470038024008B5254B984207D1C7
:1077F8004FF480500121FFF7CFFF4FF4805039E05C
:10780800204B984207D14FF480400121FFF7B8FF81
:107818004FF4804009E01C4B98420BD14FF40040D4
:107828000121FFF7ADFF4FF400400021BDE80840FB
:10783800FFF7A6BF154B984207D14FF4005001211E
:10784800FFF7AAFF4FF4005014E0114B984207D1FC
:107858004FF480100121FFF79FFF4FF4801009E0DB
:107868000C4B98420BD14FF400100121FFF794FF05
:107878004FF400100021BDE80840FFF78DBF08BD98
:107888000030014000380040003C00400034014016
:10789800005001400054014003884A8810B503F4A1
:1078A80041540B8813438A881343CA8813430A89AF
:1078B80013434A8913438A891343CA8913432343C9
:1078C8009BB20380838B23F400631B041B0C83830C
:1078D8000B8A038210BD038819B19BB243F04003A1
:1078E80003E023F040031B041B0C038070478388CC
:1078F8009BB20AB1194301E023EA01018180704774
:1079080030B5048C24F001042404240C0484048B72
:10791800058CA4B2ADB224F0F304224325F00A0585
:1079280042EA031345F001059AB229430283018410
:1079380030BD30B5048C24F010042404240C0484D5
:10794800058B048C25F44075A4B22D052D0D24F06B
:10795800A00444F0100445EA022242EA033344EA50
:1079680001119BB28CB20383048430BD08B5474B28
:10797800984205D101200146FFF70EFF01203DE0A6
:10798800B0F1804F05D101200146FFF7F9FE012033
:1079980076E03F4B984205D102200121FFF7F0FE27
:1079A80002206DE03B4B984205D104200121FFF7EE
:1079B800E7FE042064E0384B984205D108200121F5
:1079C800FFF7DEFE08205BE0344B984205D110201B
:1079D8000121FFF7D5FE102052E0314B984205D126
:1079E80020200121FFF7CCFE202049E02D4B9842B2
:1079F80009D102200121FFF7CFFE02200021BDE8B6
:107A08000840FFF7C9BE284B984207D14FF4803091
:107A18000121FFF7C1FE4FF48030EFE7234B984276
:107A280007D14FF400300121FFF7B6FE4FF40030C4
:107A3800E4E71F4B984207D14FF480200121FFF75C
:107A4800ABFE4FF48020D9E71A4B984205D140206D
:107A58000121FFF795FE402012E0174B984205D10F
:107A680080200121FFF78CFE802009E0134B98420B
:107A78000BD14FF480700121FFF782FE4FF4807024
:107A88000021BDE80840FFF77BBE08BD00000140AB
:107A98000004004000080040000C004000100040B6
:107AA800001400400004014000400140004401402F
:107AB8000048014000180040001C00400020004021
:107AC8001C4A038890429BB212D002F58062904211
:107AD8000ED0B0F1804F0BD0A2F58032904207D083
:107AE80002F58062904203D002F58062904203D191
:107AF8004A8823F0700313430F4A904208D002F5D6
:107B0800806290421FBF23F440730A899BB21343DB
:107B180003804B68C3620B880385064B984203D0E9
:107B280003F58063984201D18B7A0386012383820F
:107B3800704700BF00000140001000404FF0FF33C5
:107B4800436000230380038143808372704701856B
:107B580082827047038819B19BB243F0010303E0A6
:107B680023F001031B041B0C03807047038C23F0D4
:107B780001031B041B0C0384038C70B58488028BDF
:107B88000E8822F073021204120C23F00205164329
:107B98004B888A892D0413430F4A2D0C2B4390429E
:107BA800A4B29BB203D002F5806290420ED1CA897A
:107BB8004D8A23F0080313438A8823F004031343F0
:107BC8000A8A24F4407415432C43A4B284800683A3
:107BD8008A684263038470BD00000140038C23F06F
:107BE80010031B041B0C0384038C30B58588028B9F
:107BF8000C8822F4E6421204120C42EA042223F012
:107C0800200394B21B048A891B0C43EA02134A8896
:107C180043EA0213124A9042ADB29BB203D002F576
:107C28008062904215D123F08003CA899BB243EA4F
:107C380002124FF6BF7313408A8843EA02130A8A76
:107C480025F4406545EA82054A8A45EA82059BB2E1
:107C5800ADB2858004838A688263038430BD00BF27
:107C680000000140038C23F480731B041B0C038465
:107C7800038C30B58488828B0D8822F0730212043D
:107C8800120C23F4007315431B048A891B0C43EA66
:107C980002234A8843EA0223124A9042A4B29BB2C2
:107CA80003D002F58062904215D123F40063CA899B
:107CB8009BB243EA02224FF6FF3313408A8843EA15
:107CC80002230A8A24F4405444EA02144A8A44EA01
:107CD80002149BB2A4B2848085838A68C263038439
:107CE80030BD00BF00000140038C23F480531B0407
:107CF8001B0C0384038C30B58488828B0D8822F496
:107D0800E6421204120C23F4005342EA05221B0433
:107D18008D891B0C43EA05334D8843EA05330B4D27
:107D2800A842A4B292B29BB203D005F58065A842DE
:107D380005D10D8A24F4804444EA8514A4B28480D1
:107D480082838A680264038430BD00BF000001405A
:107D58004163704781637047C1637047016470472E
:107D6800038B23F008031B041B0C19430183704782
:107D7800038B23F400631B041B0C43EA012189B223
:107D880001837047838B23F008031B041B0C1943E2
:107D980081837047838B23F400631B041B0C43EA25
:107DA800012189B281837047002301220380438027
:107DB8008280C38003817047406B7047806B704737
:107DC800006C7047038B23F00C031B041B0C03830C
:107DD800038B9BB2194301837047038B23F44063E1
:107DE8001B041B0C0383038B9BB243EA012189B25A
:107DF80001837047838B23F00C031B041B0C8383C4
:107E0800838B9BB2194381837047838B23F4406330
:107E18001B041B0C8383838B9BB243EA012189B229
:107E2800818370472DE9F04188460D88B8F8042011
:107E38004988B8F80830044645B9FFF761FD20467F
:107E4800B8F80610BDE8F041FFF7BCBF042D08D113
:107E5800FFF76FFD2046B8F80610BDE8F041FFF7C0
:107E6800BCBF082D058C1DD125F480752D042D0C63
:107E78000584858B068CADB225F0F305B6B245EACC
:107E88000315ADB226F420662A4346EA0125ADB2B1
:107E980045F4807582830584B8F80610BDE8F04182
:107EA800FFF7A8BF25F480552D042D0C0584B0F8E4
:107EB8001CE0068C2EF4407726F400553F056D042F
:107EC8003F0D6D0C47EA022745EA013547EA0333BF
:107ED800ADB245F480559BB283830584B8F806108B
:107EE800BDE8F041FFF791BFB0F8443029B16FEA1F
:107EF80043436FEA53439BB201E0C3F30E03A0F878
:107F08004430704783899BB20AB1194301E023EAE0
:107F1800010181817047038A194214BF01200020A2
:107F28007047038A828911EA030092B203D0114292
:107F380014BF012000207047C94389B201827047ED
:107F480083899BB20AB1194301E023EA01018181C7
:107F5800704700007FB5038ACA889BB223F4405358
:107F68001343038283890E469BB223F4B0530989D5
:107F780023F00C02B3880B4371890B439BB2134364
:107F88008381838AB2899BB223F44073134383822B
:107F980004466846FFF780FB1A4B9C4203D003F562
:107FA80080639C4201D1039D00E0029DA389316852
:107FB8001BB2002B4FF0190202FB05F2B4BF4D00B3
:107FC8008D00B2FBF5F5A2896426B5FBF6F0000139
:107FD800010912B2002A06FB1153ADBF1A01D900DC
:107FE80032313232B5BFB1FBF6F2B2FBF6F302F032
:107FF800070203F00F03B4BF1043184380B2208177
:1080080004B070BD00100140838919B19BB243F4DC
:10801800005303E023F400531B041B0C83817047B7
:10802800C1F30801818070478088C0F30800704759
:10803800838A9BB20AB1194301E023EA01018182D4
:10804800704710B5C1F34214012301F01F01012C40
:1080580003FA01F301D10C3003E0022C0CBF1030FD
:10806800143012B10268134302E0026822EA0303E3
:10807800036010BDC94389B201807047012310B560
:10808800C1F3421401F01F029C4203FA02F201D12B
:10809800838903E0022C0CBF038A838A9BB21340B6
:1080A800028892B23BB1090A01238B40134214BFE4
:1080B8000120002010BD184610BD000040F0BF6030
:1080C800024B40F40030D860704700BF00ED00E07C
:1080D800C278037810B512B3164AD1684278C943FA
:1080E800C1F30221C1F10404E4B2A240D4B20F22C8
:1080F8000A4181780A40224303F1604303F5614352
:108108001201D2B283F8002303780122590903F03F
:108118001F0302FA03F3084A42F8213010BD5A0936
:10812800012103F01F03994002F12003024A42F89B
:10813800231010BD00ED00E000E100E010B501F0F3
:10814800030301F0FC0101F1804101F59C319B0022
:108158008C680F229A4024EA02028A608A68984052
:1081680002438A6010BD08B504F074F800F0A2FE5E
:10817800FDF70AFA04F098F80020012104F08EF8BF
:108188000120014604F08AF8FEE700002DE9F041DD
:108198001E4E3578C5BB1E4C01214FF48040FFF7B9
:1081A800CBFA01270623A57020460D252370E7701A
:1081B8006570FFF78DFF0723204623706570FFF772
:1081C80087FF0823204623706570FFF781FF092386
:1081D800204623704FF00A086570FFF779FF0523E2
:1081E8002046637084F80080FFF772FF172320464B
:1081F80023706570FFF76CFF2823204684F8018000
:108208002370FFF765FF3770BDE8F081307D0020EF
:108218002C7D0020704708B50120FFF7C3F8FFF751
:10822800F9FF08BD704708B50220FFF7BBF8FFF754
:10823800F9FF08BD704708B50420FFF7B3F8FFF74A
:10824800F9FF08BD704708B50820FFF7ABF8FFF73E
:10825800F9FF08BD08B51020FFF7A4F805F034FFB2
:1082680008BD7047704770477047704708B52020B1
:10827800FFF78EF8012804D12020FFF793F8FFF7C5
:10828800F0FF4020FFF784F8012804D14020FFF7D1
:1082980089F8FFF7E7FF8020FFF77AF8012804D173
:1082A8008020FFF77FF8FFF7DEFF4FF48070FFF7BD
:1082B8006FF8012805D14FF48070FFF773F8FFF7C6
:1082C800D3FF4FF40070FFF763F8012805D14FF48E
:1082D8000070FFF767F8FFF7C8FF08BD70477047E1
:1082E80070477047704708B54FF48060FFF750F843
:1082F800012805D14FF48060FFF754F8FFF7EEFF2F
:108308004FF40060FFF744F8012805D14FF40060EE
:10831800FFF748F80BF0FEF84FF48050FFF738F8F5
:10832800012805D14FF48050FFF73CF8FFF7D7FF3D
:108338004FF40050FFF72CF8012805D14FF40050F6
:10834800FFF730F8FFF7CCFF4FF48040FFF720F835
:10835800012805D14FF48040FFF724F8FFF7C1FF4B
:108368004FF40040FFF714F8012805D14FF40040FE
:10837800FFF718F8FFF7B6FF08BD4FF44070FFF796
:108388009DBEFEF7E1BC70471EF0040F0CBFEFF373
:108398000880EFF3098000F001B870472DE9F84F25
:1083A800D0F800B0D0F804A0D0F80890D0F80C802D
:1083B800076946698569C4693449354802F0AAFAEB
:1083C800344933485A4602F0A5FA334930485246F0
:1083D80002F0A0FA31492E484A4602F09BFA304989
:1083E8002B48424602F096FA2E4929483A4602F0AE
:1083F80091FA2D492648324602F08CFA2B49244836
:108408002A4602F087FA2A492148224602F082FACF
:10841800284B29491A681E4802F07CFA274B28493C
:108428001A681B4802F076FA264B27491A6818483A
:1084380002F070FA254B26491A68154802F06AFAC4
:10844800244B25491A68124802F064FA00200146B4
:1084580000F05AF90120002100F056F9022000210D
:1084680000F052F90320002100F04EF903F048FF14
:108478000220012103F012FF0420012103F00EFF66
:108488001648942102F01EF9FEE700BF2576010880
:10849800F1E100083B760108447601084D760108B1
:1084A800567601085F760108697601087276010838
:1084B8007B76010838ED00E08576010828ED00E0BC
:1084C800907601082CED00E09B76010830ED00E085
:1084D800A67601083CED00E0B1760108BC760108FB
:1084E800002008B5014600F00FF90120002100F036
:1084F8000BF90220002100F007F90320002100F009
:1085080003F903F0FDFE0220012103F0C7FE042059
:10851800012103F0C3FE0248A72102F0D3F8FEE7C9
:10852800BC760108002008B5014600F0EDF80120EE
:10853800002100F0E9F80220002100F0E5F803200E
:10854800002100F0E1F803F0DBFE0220012103F036
:10855800A5FE0420012103F0A1FE0248BB2102F080
:10856800B1F8FEE7BC760108002008B5014600F026
:10857800CBF80120002100F0C7F80220002100F00C
:10858800C3F80320002100F0BFF803F0B9FE022071
:10859800012103F083FE0420012103F07FFE02483D
:1085A800CF2102F08FF8FEE7BC760108704704F08F
:1085B80061BC000037B500240E4D6846FEF72EFF5B
:1085C8002B681A59D26800921B5969469868FEF7B9
:1085D800EFFE2B681B5900229868198AFEF736FFB0
:1085E8002B681B590434186AFFF7C0F9102CE3D123
:1085F80003B030BDB09100202DE9F0413F4F404D10
:108608003B788AB0044613B12868FFF7D3FF2C6083
:1086180000242B681B5901215868FFF781F82B6843
:108628001B590121D869FFF793F86846FEF7F6FE53
:1086380002238DF804308DF805302B681A595269D9
:108648008DF806201A59D26800921B596946986815
:10865800FEF7AEFE2B681B599868198A1A7EFEF73A
:10866800F5FE2B681A59D26A03921A590026128EFF
:10867800ADF80820ADF81060ADF80A608DF812600A
:108688001B5902A9186AFFF71BFA6023ADF81430CA
:108698004FF001082B68ADF8168007961A59928C8E
:1086A800ADF820204FF48072ADF824201B5905A99D
:1086B800DA6B186A90472B681B5908211A6C186ADC
:1086C80090472B681B594146986AFEF7B5FC2B6802
:1086D8001B594146186A0434FFF706FC102C98D140
:1086E8002B689B590121186A0436FFF733FA102EBC
:1086F800F6D101233B700AB0BDE8F081447D00202B
:10870800B0910020000000002DE9F0472DED028B0C
:10871800454B1B7882B005460C46002B74D00328C5
:1087280004D942484249D82201F094FF414B1A68C3
:1087380052F8252012789A46002A47D107EE104AA7
:10874800DFED3D7ABBEEC87A67EE277A17EE900A1E
:10875800FBF77AFE06460F4606F014FD2EA3D3E972
:10876800002330463946B0EE408AFBF7C1FE324658
:108778003B46FBF7BDFE2AA3D3E900238046894682
:1087880030463946FBF7B4FE0B460246494640469A
:10879800FBF7FCFCFCF746F907EE900A87EE880A1F
:1087A800264BF7EE007AB4EE670AF1EE10FAC8BF6E
:1087B800B0EE670ADFED227A20EE270ABCEEC00A87
:1087C8008DED010ABDF8044043F82540DAF8003081
:1087D80053F825301A78012A01BF45F208214C4385
:1087E8004FF6FF71B4FBF1F104BF01F5A441083164
:1087F8005A6B0BBF186A186A89B2210A02B0BDEC1D
:10880800028BBDE8F047104702B0BDEC028BBDE813
:10881800F08700BFAFF300809FE3480CA77144BF07
:10882800BA490C022B87B63F447D0020B077010877
:10883800C3770108B091002000007042347D002009
:1088480000FF7F47AFF3008003282DE9FF4104466E
:10885800884617461E4605DD184819494FF489729F
:1088680001F0F8FE01A8FFF769F9164DB8F1000FFD
:1088780008D00423144A92FBF7F292B2ADF8043000
:10888800029209E02B6853F82420D26A029253F826
:1088980024301B8EADF804302B6853F8243001A91E
:1088A800186AFFF70DF92B6853F8243031465A6BD4
:1088B800186A904704B0BDE8F08100BFB07701089E
:1088C800C3770108B09100200059000170B5002459
:1088D800114B1B6853F824301D78BDB90F4B53F862
:1088E80024600F4B012133F81420304640F2757391
:1088F800FFF7AAFF3220FCF7FFFF304629462A4639
:108908002B46FFF7A1FF9620FCF7F6FF0134042C55
:10891800DED1044B187870BDB0910020187701089B
:1089280048780108447D00207320704700B589B05D
:10893800154B164A1B68934222D09B686846984795
:1089480002460028F4D19DF8013011491B0951F85D
:10895800230020B169460223FDF73EFB03E00D4AE0
:108968001368013313609DF801300B4A1B0952F854
:1089780023100029DCD052F8233068469847D7E7FF
:108988000A20FCF7B9FFD3E7480000203400002094
:10899800487D0020887D0020947D002010B588B097
:1089A8000E4B0F4A196891421C4613D00D4B69466D
:1089B80018684FF0FF320023FDF7AAFC0128EFD119
:1089C800236868465B6898470028E9D10A20FCF7C5
:1089D80093FFF5E70A20FCF78FFFE1E74800002046
:1089E80034000020907D00207FB5114D2C78ECB923
:1089F800202122463C20FDF7BBFA0E4B0E49186099
:108A080002269622234600960194029403940B486A
:108A1800FCF7C0FC2346009601940294039408488E
:108A280008499622FCF7B6FC01232B7004B070BDF0
:108A38008C7D0020907D002060790108A5890008C0
:108A48003589000868790108014B1878704700BF1C
:108A58008C7D002038B5094B53F8202005461C466C
:108A680022B1074807495C2201F0F4FD01202021CA
:108A78000022FDF77DFA44F8250038BD487D002026
:108A8800707901088779010870B50E4B53F82020DA
:108A980006460D461C4622B90B480C496C2201F0CB
:108AA800D9FD25B90A4809496D2201F0D3FD54F8CA
:108AB800260029464FF0FF320023BDE87040FDF73D
:108AC80027BC00BF487D00209E79010887790108EE
:108AD800A97E010808B5034B1868FDF71FFDC0F112
:108AE8003C0008BD907D00201028DCBF014B43F8F6
:108AF80020107047947D002010B5044620B90B481B
:108B08000B49C32201F0A6FD23781E2B04D909487E
:108B18000749C42201F09EFD074B00221868214630
:108B28001346BDE81040FDF757BA00BFA97E0108FB
:108B380087790108AD790108907D002008B5064BBA
:108B480000211868FDF7D4F9044B1B681B6903B1B1
:108B58009847002008BD00BF907D002048000020F5
:108B6800034B1B68DB6803B118470120704700BF3F
:108B78004800002070B5094C2368054613B11B68EE
:108B8800002098470DB1256001E0054B236023685C
:108B980001201B68BDE87040184700BF480000204E
:108BA8003400002038B50C4C4FF0FF330021054647
:108BB80044F8203003F072FB084A282303FB0522FF
:108BC800002352F82310013102D044F8253038BD73
:108BD80001330A2BF5D138BDA07E0020D47D0020BA
:108BE8002DE9F74F8046FDF7D1FE2C4B1B78002B63
:108BF80050D0C5B22A4B53F82530581C4AD00A2603
:108C080006FB0536DFF8A490264A59F8264052F8A4
:108C180023B0254F0021631C0BEBC40A49F826300A
:108C280038680B464FF0FF32FDF772FBDAF8043074
:108C3800991C08D05A1C0AD1284649F82630002425
:108C4800FFF7B0FF1EE0002449F826401AE01BF8A1
:108C58003410284603F022FBDAF80420002482B1FD
:108C68002346042100944046FDF744FDFCF7D6FC5A
:108C780000940246234640460121FDF73BFD0124AE
:108C880000E01446002138680A460B46FDF7A4F9AF
:108C9800002CAFD003B0BDE8F08F00BF9C7E002051
:108CA800A07E0020CC790108C87E0020D47D002059
:108CB80037B51E4B1C781D46ACBB03F0F5FA2346AE
:108CC8001B4A4FF0FF3142F823101A49282202FBB1
:108CD800031100224FF0FF3041F8220001320A2A26
:108CE800F8D10133052BEBD10024134B0093134823
:108CF80023464FF47A710022FDF7D4FC104B43F859
:108D080024000134052CF0D1032201200021FDF7B5
:108D18002FF90C4A106020B100210A460B46FDF7D6
:108D28005BF901232B7003B030BD00BF9D7E00208E
:108D3800A07E0020D47D0020E98B0008C47A0108B9
:108D4800B47E0020C87E002010B5044B1C7803F0C8
:108D5800E1FA034B01221A70204010BD9D7E0020CD
:108D68009C7E0020F8B505460024174B53F82430A4
:108D78008B4223D1154F00210B464FF0FF32386844
:108D8800FDF7C6FA0A2303FB0543114A00262846C5
:108D980042F82360FFF706FF33463868314632460B
:108DA800FDF71AF90B4B53F82530A3420AD10A4BA9
:108DB80053F82500BDE8F840FFF712BF01340A2C2C
:108DC800D3D1F8BDF8BD00BFCC790108C87E00201A
:108DD800D47D0020A07E0020B47E00204160C260C7
:108DE8007047000070B505460024144B53F8243032
:108DF8008B421FD1124E00210B4630684FF0FF32D4
:108E0800FDF786FA0A2303FB05440E4B4FF0FF32A9
:108E1800284643F82420FFF7C5FE002130680B469A
:108E28000A46FDF7D9F8084B53F82500BDE870400D
:108E3800FFF7D6BE01340A2CD7D170BDCC79010812
:108E4800C87E0020D47D0020B47E002008B54FF0F5
:108E58005F0383F31188BFF36F8FBFF34F8F06490A
:108E6800064801F057FD0220012103F017FA0420FB
:108E7800012103F013FAFEE7107B0108699200084C
:108E88007047012070470000024B1B680BB11B683C
:108E980018477047CC7E0020024B1B680BB15B68FB
:108EA80018477047CC7E0020014B1860704700BF00
:108EB800CC7E00201FB50223009300230193029368
:108EC8000393044904484FF49672FCF763FA05B01B
:108ED8005DF804FB217B01080990000873B5274C55
:108EE8002578002D48D10120FDF73EF9244B254E69
:108EF80018604FF0FF322B462946FDF709FA05F0B6
:108F080083FBFFF771FD00F069F91F491F4801F065
:108F180001FD1F491D4801F0FDFC1E491E4B0D684F
:108F28001E4836781E491A681E4B002E18BF014687
:108F38001B681648019100951B4901F0EBFC1B4B7F
:108F48001B491B6800931B4B1048B3F90030019371
:108F5800194B1A68043B1B6801F0DCFC0AF0DCFBC7
:108F680001F0E0F808F0F8FCFFF7A2FE06F0DEF8E2
:108F7800FFF786FF0123237002B070BDD17E002069
:108F8800B4910020CF7F0108377B0108699200085F
:108F98005A7B0108A0010020A4010020287B0108B9
:108FA800317B01089C010020817B0108107AFF1F9A
:108FB8009B7B0108227AFF1F187AFF1F38B5084BE0
:108FC8001C78FFF7C1FE054606F0D6F82840044095
:108FD80001F0B4F80440FFF754FF204038BD00BF4B
:108FE800D17E002008B5054B002118680A460B46BB
:108FF800FCF7F2FFBDE8084005F03EB9B491002047
:1090080038B503F051F90121002003F047F9FFF7C3
:1090180065FF00F0A1F801F04DF901F0BDFD08F081
:109028005BF908F0B3F800F075FCFFF7C7FF0446DA
:109038000AF020FC2040C4B200F0A8F8044001F077
:109048005FF9044001F0CCFD044008F063F90440E6
:1090580008F0C6F8044000F07FFC04401F4D05F0FE
:10906800F5F884B178B101242C70FFF7BBFF062016
:1090780008F0BCF804201A49FFF774FE2046194985
:10908800FFF770FE1CE000232B70FFF797FF88B1F5
:1090980004201449FFF766FE4FF4FA60FCF72CFC35
:1090A8002B78002BF4D01049104801F033FCFFF75F
:1090B80099FF05E003F0F8F80420012103F0EEF829
:1090C800FDF77CFD0A490246084801F023FC01F03F
:1090D8003DF84FF0FF30FCF70FFCFAE7D07E002098
:1090E800F87A01084C7A0108C97B010869920008DE
:1090F800DD7B010810B50B4B1B781BB90220FCF770
:10910800FBFBF8E7084C00210B4620684FF0FF32C4
:10911800FDF7FEF8002120680A460B46BDE810401E
:10912800FCF75ABFD17E0020B4910020014B187083
:10913800704700BFD27E002008B5FCF76FFA054AD9
:109148001368C31A502B02D91060FEF795FA30BF86
:1091580008BD00BFD47E002010B50B4C23788BB916
:1091680004F0D0FD06F0A6FA06F00EFBFFF702FDAC
:1091780000F0E0F807F02AFF00F0F0FE00F00CF92C
:109188000123237010BD00BFD87E002038B50B4BDB
:109198001C7806F057FA0546FFF756FC28400440AD
:1091A80000F0D8F8044007F021FF044000F034F83C
:1091B800044000F037F9204038BD00BFD87E0020B9
:1091C80010B5054C2046FFF797FC01284FF0000327
:1091D8000CBF2370184610BDB891002038B50B4B52
:1091E8001C781D468CB90A4B0322012021461C70AD
:1091F8005C70FCF7BDFE074A106020B1214622468C
:109208002346FCF7E9FE01232B7038BDE07E0020E1
:10921800B8910020DC7E0020014B1878704700BF11
:10922800E07E002037B50C4C05460021206801AAD5
:10923800FDF72EF901280CD1084A206813781D2B58
:109248009EBFD11801338D7001A998BF1370FDF727
:109258000FF8284603B030BDDC7E0020B89100200E
:1092680070B5214B5968214B1B780646002B39D025
:10927800C1F3080119B1BDE87040FFF7D3BF1C4D19
:109288004FF0FF3228680B46FDF742F8012827D136
:10929800184C23781D2B04D9FFF71CFC012817D183
:1092A80009E0E2180133DBB20A2E96702370F3D07E
:1092B8001E2BF1D00EE0207800231A18002A07DDB3
:1092C8000D491944224409799170013B5A1DF4D182
:1092D800FFF776FF002128680A460B46FCF77CFE5C
:1092E800F0B270BD184670BD00ED00E0E07E0020D1
:1092F800DC7E0020B8910020437C010838B5437813
:1093080013F0030305460FD0012B00D038BD0446E7
:109318001E2204F8022B002120460DF0DCFC20461A
:1093280003490DF0E0FC2846BDE83840FFF7E4BBF0
:10933800487C010810B5054C23782BB90F20044947
:10934800FFF7D2FB0123237010BD00BFE17E002090
:1093580005930008014B1878704700BFE17E002094
:1093680030B50B4B1C680B4B00221D681346A342FB
:1093780009DA0C2159436956002902DB824205D0DB
:1093880001320133F3E74FF0FF3030BD184630BDEE
:10939800F47E0020EC7E0020F0B5184D2C7885B0C6
:1093A8004CBB17481749184B184E194F3060091A0B
:1093B8008A1053433B6001F0BBFA164A164B3F68CC
:1093C8003668116818602346BB4207DA0C205843F8
:1093D800013330560028A8BF0131F5E700230124E6
:1093E80011600E4800940193029303930C4996224E
:1093F800FBF7D0FF2C7005B0F0BD00BFF07E002059
:1094080074A50108C8AB0108ABAAAAAAEC7E002083
:10941800F47E0020E47E0020E87E002055950008B8
:109428005B7C0108014B1878704700BFF07E002074
:109438002DE9F84318B101281ED0BDE8F883394B4F
:10944800394F3A4C1D683B6894F803E0384E0433B2
:109458000246AA425BDA13F8041C11F0800F03D00D
:10946800C90705D51E6804E0704513D0013000E037
:109478002F4E01320C33ECE72C4B20225A70062277
:109488001A702C4A98701268DA702B4A1068586063
:10949800184643E0202363704FF00C08002308FBB4
:1094A80002F8A3703B68E07003EB0809304613F834
:1094B800083023710DF01FFC0546D9F804000DF0A3
:1094C8001AFC28440530C0B21E28207004D91B4855
:1094D8001B49C72201F0BEF830460DF00CFC31469E
:1094E800421C18480DF0ECFB30460DF004FC3B68BC
:1094F80098440546D8F8046030460DF0FCFB2C442F
:10950800421C3146A01D0DF0DBFB0F4806E020236E
:1095180063700023A370054801232370BDE8F84356
:10952800FFF7EABAF47E0020EC7E0020D8910020F4
:10953800049E0108E47E0020E87E0020617C01088A
:109548007E7C0108DD910020D89100202DE9F74F9D
:109558000220FFF77FFA804C02202146FFF794FA99
:109568006678A57816F00306274603D12846FFF744
:109578005FFFF0E7012E30D12846FFF7F1FE002803
:1095880005DAFF23A3700223E570237130E00C2372
:109598005843724B1B681A5C191802F00302022A1E
:1095A8008B680CD0032A0FD0012A15BF1B781B88A3
:1095B800E370A4F8033014BF022303230BE01B68F5
:1095C800C4F80330052306E01A68C4F803205A6873
:1095D800C4F80720092323702EE0022E2ED1284636
:1095E800FFF7BEFE002807DAFF23A370E570267197
:1095F8000323237020469CE00C235843574B1B68D9
:109608001A181B5C5906A6D403F00303022B9268B0
:1096180009D0032B0BD0012B15BFE378B4F8033026
:109628001370138008E0D4F80330136004E054F892
:10963800031F636882E80A0047487AE0002D8AD150
:109648002B46FA18927802B9013501331E2BF8D14E
:10965800012D7EDD42480DF04EFB07EB000808F1B6
:109668000408814640460DF046FB00EB09030093D1
:10967800FB18DFF8F8905E793A4B1B680193374B7B
:10968800D3F800A04FF0000B5546019B9B4518DA14
:1096980029780A0604D5CB070DD5D5F804900CE037
:1096A80068684146FBF7EEFD38B948462C49FBF798
:1096B800E9FD10B907E0DFF8B4900BF1010B0C35A8
:1096C800E3E7022520E00C2303FB0BF30AEB03027C
:1096D8001AF803309E423AD106F0400303F0FF0522
:1096E800002B32D1009B9168043306F003063B44FB
:1096F800022E03F102001FD0032E21D0012E15BF28
:109708009B785B880B700B8015480DF0F4FA0646C1
:1097180040460DF0F0FA37443844457110480DF0D2
:10972800EAFA054640460DF0E6FA2844043020706F
:109738000D48FFF7E1F90EE7D3F802300B60E3E7D5
:10974800D0E90023C1E90023DEE70D25DCE7162573
:10975800DAE703B0BDE8F08FD8910020EC7E002056
:10976800DB910020F47E0020D8910020049E01089F
:1097780007B50420FFF76EF9604C04202146FFF777
:1097880083F9627802F00302012A23464CD0022AA8
:1097980000F08280002AEFD1A378012B02D0022B9F
:1097A8000BD0E9E7A370564B40221B786270022267
:1097B80013442270E37020469CE0E0782370402236
:1097C8006270A37020B920714E4B41F6FF7205E01C
:1097D800012810D1102323714A4B18221A604A4AD3
:1097E80018681368C4F809305368C4F80D30C4F811
:1097F80005000F237CE0454D0238C0B2294606F02B
:109808006DF8002875D03F4A702101231160106857
:1098180023712A682378C4F809206A68C4F8050007
:10982800C4F80D200D3363E0D4F80300A27801904A
:1098380041216170E579019962B96A18B2F5005F52
:1098480020D204F1080089B22A4604F047F9C8B1C9
:10985800002318E0012A0AD16A18182A12D82C4BBA
:1098680004F1080019442A460DF02AFAEFE76818AF
:10987800702807D8901E89B22A460833C0B206F06D
:1098880059F8E4E705231D4AE37113B90635157045
:109898002FE0062313702CE0D4F8030022780190FF
:1098A8004221053A6170A5780199D2B2501845B99C
:1098B800B0F5005F19D2E01D89B204F027F9A0B114
:1098C80008E0012D08D1182804D811480844E11DE2
:1098D8000DF0F6F9002309E0702806D8A81E89B211
:1098E8000733C0B206F08AF8E9E70523E3710623D7
:1098F80023700248FFF700F93EE700BF007F002011
:10990800257F0020207F00209A7C0108F87E002017
:10991800FCB2002030B50C4D2C7885B08CB90B48C2
:1099280005F0BAFF003018BF0120012328708DE828
:109938001800029403940648064996222346FBF72A
:1099480029FD05B030BD00BF247F0020257F002001
:1099580079970008967C0108014B1878704700BF7A
:10996800247F00202DE9F34100260C23184D734372
:109978005A59824204D00136082EF6D1022024E03A
:109988002B449C6824B123680022A2601C46F9E796
:109998000C2707FB0657786888B14FF0FF3803217A
:1099A80022462346CDF80080FCF7A4FECDF80080BF
:1099B8007868052122462346FCF79CFE7C600C2330
:1099C8005E434FF0FF33AB51002002B0BDE8F08199
:1099D8004882002013B500210C220C4C02FB01F335
:1099E8001A59824204D001310829F5D102200AE02F
:1099F80023444FF0FF320092002258680321134697
:109A0800FCF778FE002002B010BD00BF488200209D
:109A180038B5124B124D1B780BB900230DE000240A
:109A28002859431C05D0FFF7D5FF0D4BE058FFF729
:109A380099FF0C34602CF3D1EFE74FF0FF32EA5076
:109A48000C33602BF9D10023064A1A440C33002149
:109A5800B3F5407F9160F7D138BD00BFD0820020B8
:109A680048820020287F002008B5FCF78FFFBDE85A
:109A780008400146014800F07FBB00BF199E00085E
:109A88002DE9F74F019100210C23414A4B439C5883
:109A9800844204D001310829F6D1022075E01A4425
:109AA8003C4B1B6800933C4BD3F800800021019B82
:109AB800994224DA976800253B46384C2BB118792F
:109AC8001B680009205C0544F7E7354810F811C009
